:100000000C942A000C943F000C943F000C943F0089
:100010000C943F000C943F000C943F000C943F0064
:100020000C943F000C943F000C943F000C943F0054
:100030000C943F000C943F000C943F000C943F0044
:100040000C943F000C943F000C943F000C943F0034
:100050000C943F0011241FBECFE5D4E0DEBFCDBF1E
:1000600010E0A0E6B0E0E0E9F6E002C005900D92F5
:10007000A837B107D9F70E9441000C9446030C94AD
:100080000000DF93CF9300D000D00F92CDB7DEB742
:100090000E947D000E9494020E94BC029E012B5F80
:1000A0003F4F80E0B9010E94F50185E194E3A0E0B3
:1000B000B0E089839A83AB83BC830CC00000898144
:1000C0009A81AB81BC810197A109B10989839A8387
:1000D000AB83BC8389819A81AB81BC810097A105E8
:1000E000B10561F78D81813021F481E30E94E60240
:1000F000D5CF80E30E94E602D1CFDF93CF9300D02B
:10010000CDB7DEB7AAE3B0E0EAE3F0E080818C93FC
:10011000A7E3B0E0E7E3F0E0808181608C93E4E363
:10012000F0E08081E4E3F0E08FEF8083A1E3B0E0D2
:10013000E1E3F0E080818C93ABE3B0E0EBE3F0E04F
:1001400080818C93A8E3B0E0E8E3F0E080818E7FCB
:100150008C93E5E3F0E08081E5E3F0E01082A2E338
:10016000B0E0E2E3F0E080818C930F900F90CF91AC
:10017000DF910895DF93CF9300D000D0CDB7DEB7E5
:100180008A837C836B8381E089838A81843010F049
:10019000198211C08A81882F90E0880F991FFC0175
:1001A000E05AFF4F0190F081E02D8081EB81FC81CE
:1001B000808381E0898389810F900F900F900F9049
:1001C000CF91DF910895DF93CF9300D00F92CDB7F9
:1001D000DEB78A836B8381E089838A81843010F063
:1001E00019820FC08A81882F90E0880F991FFC0127
:1001F000E05AFF4F0190F081E02D8B81808381E0F8
:10020000898389810F900F900F90CF91DF9108958E
:10021000DF93CF9300D000D0CDB7DEB78A837C8345
:100220006B8381E089838A81843010F0198211C048
:100230008A81882F90E0880F991FFC01E859FF4FB1
:100240000190F081E02D8081EB81FC81808381E051
:10025000898389810F900F900F900F90CF91DF913C
:100260000895DF93CF9300D00F92CDB7DEB78A8386
:100270006B8381E089838A81843010F019820FC0FA
:100280008A81882F90E0880F991FFC01E059FF4F69
:100290000190F081E02D8B81808381E089838981C9
:1002A0000F900F900F90CF91DF910895DF93CF9330
:1002B00000D000D0CDB7DEB78A837C836B8381E02A
:1002C00089838A81803210F0198232C08A818695B2
:1002D00086958695882F90E0880F991FFC01E05A3B
:1002E000FF4F0190F081E02D8081482F50E08A81FE
:1002F000882F90E09C012770307081E090E002C070
:10030000880F991F2A95E2F79A01282339238A81B9
:10031000882F90E087709070A90102C0559547958D
:100320008A95E2F7CA01EB81FC81808381E08983B1
:1003300089810F900F900F900F90CF91DF910895CA
:10034000DF93CF9300D00F92CDB7DEB78A836B8354
:1003500081E089838A81803210F019823FC08A81CE
:10036000869586958695882F90E0880F991FFC01C9
:10037000E05AFF4FA081B1818A8186958695869546
:10038000882F90E0880F991FFC01E05AFF4F0190E1
:10039000F081E02D8081482F8A81882F90E09C0198
:1003A0002770307081E090E002C0880F991F2A9575
:1003B000E2F7809548238B81282F30E08A81882FAF
:1003C00090E087709070B90102C0660F771F8A9520
:1003D000E2F7CB01842B8C9381E0898389810F9094
:1003E0000F900F90CF91DF910895DF93CF9300D0BE
:1003F00000D0CDB7DEB78A837C836B8381E08983AD
:100400008A81803210F0198232C08A818695869561
:100410008695882F90E0880F991FFC01E859FF4FBF
:100420000190F081E02D8081482F50E08A81882F53
:1004300090E09C012770307081E090E002C0880F4E
:10044000991F2A95E2F79A01282339238A81882F58
:1004500090E087709070A90102C0559547958A95E4
:10046000E2F7CA01EB81FC81808381E08983898185
:100470000F900F900F900F90CF91DF910895DF9321
:10048000CF9300D00F92CDB7DEB78A836B8381E024
:1004900089838A81803210F019823FC08A818695D3
:1004A00086958695882F90E0880F991FFC01E0596A
:1004B000FF4FA081B1818A81869586958695882F88
:1004C00090E0880F991FFC01E059FF4F0190F081E7
:1004D000E02D8081482F8A81882F90E09C01277031
:1004E000307081E090E002C0880F991F2A95E2F7F2
:1004F000809548238B81282F30E08A81882F90E0D7
:1005000087709070B90102C0660F771F8A95E2F775
:10051000CB01842B8C9381E0898389810F900F908C
:100520000F90CF91DF910895DF93CF9300D0CDB797
:10053000DEB71A821982A0E4B0E0E0E4F0E0808146
:1005400086688C93AAE2B0E0EAE2F0E080818C93C6
:100550008AE190E09A838983E9E2F0E089818083EF
:10056000E0E4F0E089819A81892F992780830F90B8
:100570000F90CF91DF910895DF93CF93CDB7DEB782
:10058000AAE2B0E0EAE2F0E0808188608C93AAE21F
:10059000B0E0EAE2F0E080818F7D8C93CF91DF9133
:1005A0000895DF93CF93CDB7DEB7AAE2B0E0EAE2D9
:1005B000F0E0808180618C93AAE2B0E0EAE2F0E0B2
:1005C00080818F778C93CF91DF910895DF93CF93C4
:1005D0000F92CDB7DEB78983EBE2F0E08081882F00
:1005E00090E0807290700097B9F3ECE2F0E08981BE
:1005F00080830F90CF91DF910895DF93CF93CDB794
:10060000DEB7EBE2F0E080818823DCF7ECE2F0E09B
:100610008081CF91DF910895DF93CF930F92CDB773
:10062000DEB78983ECE2F0E0898180830F90CF917F
:10063000DF910895DF93CF93CDB7DEB7ECE2F0E022
:100640008081CF91DF910895DF93CF9300D00F92F7
:10065000CDB7DEB79B838A8319820EC08981282F8C
:1006600030E08A819B81FC01E20FF31F80810E94B0
:10067000E60289818F5F89838A819B81009771F768
:100680000F900F900F90CF91DF910895F894FFCFC6
:100690003A003700340031003900360033003000B2
:0806A0003B0038003500320078
:00000001FF
